:020000040800F2
:10000000C03C0020E10100089F3E00085536000872
:100010009D3E0008E9110008994B0008000000000F
:10002000000000000000000000000000490100087E
:1000300047130008000000008D010008354000084B
:10004000FB010008FB010008FB010008FB010008A0
:10005000FB010008FB010008FB010008FB01000890
:10006000FB010008FB010008FB010008FB01000880
:10007000FB010008FB010008F91200080513000845
:1000800011130008FB010008FB010008FB01000838
:10009000FB010008FB010008FB010008FB01000850
:1000A000FB010008FB010008FB010008FB01000840
:1000B000FB010008FB010008FB010008FB01000830
:1000C000FB010008FB010008FB010008FB01000820
:1000D000FB010008754B0008814B00088D4B0008A0
:1000E000FB010008FB010008FB010008FB01000800
:1000F000FB010008FB010008FB010008FB010008F0
:10010000FB010008FB010008FB010008FB010008DF
:10011000F546000801470008CD400008FB01000833
:10012000FB010008FB010008FB010008FB010008BF
:10013000DFF810D000F022FC00480047DD54000832
:10014000AFF30080C03C0020224B19680868B0E87B
:10015000F00F80F30988BFF36F8F4FF0000080F33A
:1001600011884EF00D0E7047000000000648006830
:10017000006880F3088862B661B6BFF34F8FBFF3A3
:100180006F8F00DF00BF00BF08ED00E0EFF30980D4
:10019000BFF36F8F0F4B1A6820E9F00F106008B59E
:1001A0004FF0500080F31188BFF34F8FBFF36F8F74
:1001B00006F0BCFC4FF0000080F31188BDE8084059
:1001C00019680868B0E8F00F80F30988BFF36F8FF3
:1001D000704700BF30000020EFF30580704700003B
:1001E0000648804706480047FEE7FEE7FEE7FEE7D1
:1001F000FEE7FEE7FEE7FEE7FEE7FEE7C940000890
:1002000031010008202A04DB203A21FA02F0002103
:10021000704721FA02F3D040C2F120029140084316
:100220001946704740EA01039B0703D009E008C95B
:10023000121F08C0042AFAD203E011F8013B00F8AB
:10024000013B521EF9D27047D2B201E000F8012BF7
:10025000491EFBD270470022F6E710B513460A4646
:1002600004461946FFF7F0FF204610BDF0B480EABF
:100270000102D40F4200B2EB410F02D202460846FF
:1002800011464A0042D0C30DDDB2C1F3C752AD1AC8
:10029000202D35DAC1F3160141F4000204B15242B7
:1002A000C5F1200602FA06F12A411044B3EBD05FF3
:1002B00023D0C4B1012DA0EBC35009DCF0BC4FF03A
:1002C000004202EAC352DBB200F5000000F040B980
:1002D000400000F1807000EBC350A0F1807040EA54
:1002E000D170490009E0490841EAC071A0EBC35050
:1002F00000F50000400800EBC350F0BC00F01FB94F
:100300006142012202EB4101001BF6E7F0BC70479D
:1003100081F00041AAE780F00040A7E780EA0102EF
:1003200010B502F00043400022D04A001FD0010E59
:1003300001EB1261C0F35600C2F3560240F4000014
:1003400042F40002A0FB022000047F39140400D014
:10035000401C50EA124001D44000491EC2B20C06B3
:1003600004EBD010401C4008802A02D003E000209B
:1003700010BD20F00100002900DA0020184310BD54
:1003800030B480EA010202F0004530F0004221F072
:10039000004013D090B1C30DD40DC2F31601C0F3C9
:1003A0001600E41A41F4000140F400027D34914249
:1003B00001D3641C00E04900002C02DA30BC0020AC
:1003C00070474FF400000023914201D3891A034380
:1003D00040084FEA4101F7D151B1914202D14FF0AB
:1003E000004105E002D24FF0010101E06FF0010190
:1003F00003EBC450284430BC00F0A1B8420005D043
:10040000C0F3C7525242914201DC0020704700EB1A
:10041000C1507047C10F80EAE0700844CA079623B4
:10042000002100F095B896230022114600F090B804
:1004300000F0004220F00040C10DC0F3160040F46F
:1004400000007F2901DA00207047962903DCC1F102
:100450009601C84001E096398840002AF4D0404215
:10046000704720F00040C10DC0F3160040F40000BA
:100470007F2901DA00207047962903DCC1F196013B
:10048000C840704796398840704700F0004230F00D
:1004900000400AD0C10D01F56071C0F3160042EAB8
:1004A0000151C208400711437047002001467047C0
:1004B00030B50B46014600202022012409E021FA34
:1004C00002F59D4205D303FA02F5491B04FA02F531
:1004D0002844151EA2F10102F1DC30BD2DE9F05FC8
:1004E0000546002092469B468846064681464024A3
:1004F0001BE02846414647462246FFF783FE534607
:100500005A46C01A914110D311461846224600F0AF
:1005100047FA2D1A67EB01084F46224601200021B9
:1005200000F03EFA17EB00094E41201EA4F1010431
:10053000DFDC484631462A464346BDE8F09F0029A5
:10054000A8BF7047401C490008BF20F00100704759
:1005500010B4B0FA80FC00FA0CF050EA010404BFB9
:1005600010BC704749B1CCF1200421FA04F411FA0F
:100570000CF118BF012121430843A3EB0C01CB1D53
:100580004FEA00614FEA102042BF002010BC7047C4
:1005900000EBC35010440029A4BF10BC7047401C9E
:1005A000490008BF20F0010010BC7047F0B40028DB
:1005B00002DCF0BC00207047C0F3C751C0F3160046
:1005C00040F40000CA0701D14000491E3F2202EB5F
:1005D0006105002211464FF4000626FA01F3134488
:1005E000D418844201D8001B1A464000491C172920
:1005F000F3DD5100814202D24FF0FF3100E00021D3
:1006000002EBC550F0BCFFF79ABF2DE9FE4F8046C4
:1006100081EA0300C00F0C46009021F0004123F056
:100620000045B8EB0200A94105D24046214690465C
:100630001C460B46024623F00040104347D0270DCE
:10064000C7F30A00C3F30A510290401A01904028F0
:100650006BDAC3F3130040F4801B0098924620B17C
:100660000023D2EB030A63EB0B0B01985946C0F150
:100670004002504600F094F906460D465046594651
:10068000019A00F09CF910EB08006141002487EA10
:10069000115284EAE7731A4340D0009A62B3019A78
:1006A000012A4FEA075215DC001B61EB02014FF0F3
:1006B000004202EA0752CDE90042001C41F58011D8
:1006C00032462B4600F09CF903B0BDE8F08F40465F
:1006D0002146F9E7001B61EB0201001C41F5801384
:1006E00000185B412018A2F5001747EB030140EA10
:1006F000D570B6196D4111E06D084FEA360645EA2E
:10070000C0754FEA0752001B61EB0201001C41F566
:10071000801149084FEA30000019514132462B46FA
:1007200003B0BDE8F04F00F05CB900980122400032
:100730000023D0EB020263EBE073009821464FEAFE
:10074000E074B8EB000061EB0401E9E783F00043DB
:100750005BE781F0004158E72DE9FE4F81EA030491
:1007600004F0004421F0004100944FF0000B23F00E
:10077000004350EA01045ED052EA03045BD0C3F3A5
:100780000A54C1F30A552C44A4F2F3340194A0FB9B
:100790000254C1F3130141F48011C3F3130343F472
:1007A000801301FB024400FB034E840A970A44EACB
:1007B000815447EA8357A4FB076802958D0A05FB1D
:1007C00007854FEA932C04FB0C542705029D4FEA42
:1007D000065847EA1637B5EB08056EEB070C870E8F
:1007E000920E47EA811742EA8312A7FB0201B6EB99
:1007F0000B0164EB00042B0D43EA0C335E1844EB51
:100800001C50DA465146E7FB0201C5F313044FEAD8
:100810000B3343EA14534FEA0432019C43EA0603C4
:10082000A4F10C040294009CCDE900B400F0E8F8B7
:1008300003B0BDE8F08F00200146F9E72DE9F04D47
:1008400081EA030404F0004B21F0004514464FF008
:10085000000A23F0004150EA050220D054EA0102C8
:100860001DD0C5F30A570246C5F31303C1F31300A5
:10087000C1F30A5640F4801543F48013A7EB060831
:10088000101BD64608F2FD3873EB050002D308F1C1
:10089000010801E092185B41B8F1000F03DA002073
:1008A0000146BDE8F08D00204FF4801106468446D5
:1008B0000EE0171B73EB050705D3121B63EB050353
:1008C00006434CEA010C49084FEA300092185B419C
:1008D00050EA0107EDD152EA030012D082EA040087
:1008E00083EA0501084305D0101BAB4106D2012263
:1008F000002306E000224FF0004302E06FF0010207
:1009000053101AEB06004CEB085110EB0A0041EBB8
:100910000B01BDE8F04D00F064B8C1F30A52C1F319
:10092000130140F2FF3341F480119A4202DA0020B1
:100930000146704740F233439A42A2F2334202DC4E
:100940005242FFF75FBC00F02BB8000030B5041E28
:1009500071F1000404DB4FF00044404264EB0101FC
:10096000141E73F1000405DB1C464FF00043524295
:1009700063EB0403994208BF904230BD064C074D1B
:1009800006E0E06840F0010394E80700984710345F
:10099000AC42F6D3FFF7D0FB6480000884800008E7
:1009A000202A04DB203A00FA02F10020704791402F
:1009B000C2F1200320FA03F3194390407047202A24
:1009C00006DBCB17203A41FA02F043EAE07306E077
:1009D00041FA02F3D040C2F1200291400843194687
:1009E000704710B5141E73F1000408DA401C41F181
:1009F000000192185B411A4301D120F0010010BDA3
:100A00002DE9F04D92469B4611B1B1FA81F202E018
:100A1000B0FA80F220329046FFF7C2FF04460F463C
:100A200040EA0A0041EA0B0153465A46084313D0F4
:100A3000114653EA010019D0C8F140025046FFF7B1
:100A4000E1FB05460E46504659464246FFF7A8FFD1
:100A5000084305D0012004E020463946BDE8F08D6A
:100A60000020054346EAE0762C4337430A986305A5
:100A7000E40AA0EB08000022FD0A44EA47540A30C9
:100A800002D500200146E9E7010510196941DDE9B9
:100A9000084500196941BDE8F04DA2E770B504466C
:100AA00000688168C943C90717D1816821F0010135
:100AB000816001F00FFA05460AE000BF01F00AFA72
:100AC000401B022804D920688068C043C00706D0B4
:100AD00020688068C043C007F0D0002070BDA06AC5
:100AE00040F01000A062E06A40F00100E0620120E6
:100AF00070BD0000F8B500260446009600688168C5
:100B0000C943C9072DD0816841F0010181601648B1
:100B100016490068B0FBF1F000E0401E009000288C
:100B2000FBD101F0D7F9054616E000BF01F0D2F97C
:100B3000401B022810D920688068C043C0070BD032
:100B4000A06A40F01000A062E06A40F00100E0629C
:100B500084F824600120F8BD20688068C043C00785
:100B6000E4D10020F8BD00002C00002040420F001E
:100B700010B5002835D11B4C302925D009DC1029AF
:100B800019D0112915D0202919D0212929D10122C4
:100B900016E0312916D0144841291AD051291ED007
:100BA00060291ED10022102101F08FF9002280213E
:100BB00003E0012200E00022202120460BE0002279
:100BC0004021FAE7642000E00020BDE8104000F07A
:100BD000C3BA01221021BDE8104001F076B901220C
:100BE000E5E710BD000801400010014010B50B4CB6
:100BF0002078002810D06088022804D30848417863
:100C00000078FFF7B5FF002060802070BDE810403D
:100C100020210348FFF71FBB10BD0000E4000020A7
:100C20009C3800200E4810B541881F290AD20D4B70
:100C300042785A54491C89B24180022908D30121C3
:100C4000017005E00021418020210648FFF703FBE9
:100C500003490122BDE81040491C034802F046BC8C
:100C6000E40000209C38002094020020084810B5C1
:100C700000214180017020210648FFF7ECFA044969
:100C80000122BDE81040491C034802F02FBC0000BF
:100C9000E40000209C380020940200202DE9F04F51
:100CA00089B000F0A3F8FFF7DCFB1FFA80F802A878
:100CB00000F0E2F904A800F0A1F93A4C40212046E6
:100CC00001F0FEF8002869D00026012127462046C1
:100CD00001F0F6F8002863D00025334C402120466F
:100CE00001F0EEF881462021204601F0E9F8079056
:100CF0008021204601F0E4F806901021384601F0EA
:100D0000DFF805901021204601F0DAF8834600F064
:100D10000BFA8246684603F0CDF8244F4FF0FF31BE
:100D2000386804F06BFC224CA4F80780DFF884805C
:100D3000641C41460298FFF7F1FAFFF779FB208126
:100D400041460398FFF7EAFAFFF78BFB6081BDF895
:100D50001000A080A674E57484F8109007982073A2
:100D6000069860730598A07384F811B084F80FA0FA
:100D70009DF8000004F8010C9DF8010020709DF81A
:100D800002006070BDF8040060800B480078207598
:100D9000386804F090FC09B0BDE8F08F012694E7B4
:100DA00001259AE700100140000801401C000020C6
:100DB000063800200000C842E200002010B50122E1
:100DC0000021500206F096FB05490028086006D075
:100DD000BDE8104080220349034802F066B810BD08
:100DE000DC0000201C3800200402002010B500F0B8
:100DF0003FF804480178022901D0002010BD806B23
:100E000010BD0000C430002070B50D4C00254FF01F
:100E10007E502570C4E9015084F83450A563E56321
:100E200001F058F82064002004EB8001401CC0B29F
:100E3000CD600A28F8D3BDE87040024800F062BCDB
:100E4000C4300020F000002010B5084800F05AFC23
:100E50006421064800F0B8FB044800F0F5FA0446A7
:100E6000024800F0AFFC204610BD0000F00000205A
:100E700070B5384C207868B301284BD0022828D1AF
:100E8000FFF7E2FFFFF7CFFA94F83420014604EBB6
:100E900082020020D16094F834100A22491CB1FB70
:100EA000F2F302FB131184F83410054604EB8501BC
:100EB000C968FFF7DBF96D1CEDB20A2DF6D32649A0
:100EC000FFF75EFAD4E9011202F0D6FDA16BC4E986
:100ED0000E0170BD00F0FEFF216C41F28835401A12
:100EE000A84212D200F0F6FF1C4E3168401AA84208
:100EF000EFD300F0EFFF216C401A291A18A003F07D
:100F00004DFE00F0E7FF306070BD1EA003F046FE0E
:100F100001201CE000263546FFF796FF06440A2014
:100F200000F0C0FE6D1CADB2322DF5D33220B6FB01
:100F3000F0F0FFF778FA4FF07E51C4E90101FFF7B6
:100F4000A4FA02460B461BA003F028FE02202070E4
:100F500070BD0000C430002000002041BC00002013
:100F60004D5132207761726D696E672075702C204B
:100F700072656D61696E696E673A20256C75206DCA
:100F8000730D0A004D5132205761726D75702063E8
:100F90006F6D706C657465642E20456E7465726942
:100FA0006E672063616C6962726174696F6E2E2E68
:100FB0002E0D0A004D51322043616C6962726174DA
:100FC000696F6E20646F6E653A205A65726F203DBE
:100FD00020252E32660D0A001CB520208DF8040055
:100FE00003208DF8050064200090022301AAB0219F
:100FF000014801F061F91CBD200100207FB50446C5
:1010000020208DF80C0008208DF80D0064250223A7
:1010100003AAB0211748009501F04EF900281DD110
:101020000C2000F03FFE062301AAB12111480095D3
:1010300001F01AF8002811D1022101A802F09CFF4A
:101040009DF80610884208D102210DF1070002F038
:1010500093FF9DF80910884202D0012004B070BDB2
:10106000BDF8040040BA2080BDF8070040BA608097
:101070000020F3E7200100202DE9F0410546E320A0
:1010800000F034F80446E52000F030F820F00306C4
:101090002046FFF7C8F96FF00F073946FFF7AEF9A2
:1010A0000D49FFF73BF90D49FFF7E0F80C4C2060C4
:1010B0003046FFF7B8F93946FFF7A0F90949FFF7BD
:1010C0002DF90949FFF7D2F8606020682860606850
:1010D0006860BDE8F081000052B82F4366663BC2ED
:1010E000B00000200000FA420000C0C011B583B07B
:1010F00000206424CDE90040012303AA802109488F
:1011000001F0DAF80A2000F0CDFD022301AA8121C6
:101110000448009400F0A8FFBDF8040004B040BAF1
:1011200010BD000020010020014800787047000039
:10113000B800002070B5064D064800246C70007899
:1011400002F032FF0A2000F0ADFD2C7070BD0000EF
:10115000B8000020F87F00082DE9F0470446642815
:1011600000D964241E4801788C4236D0611A0029C7
:1011700002DA00BFC1F100014FEA01314FF0640211
:1011800091FBF2F602DD4FF0010701E04FF0FF376F
:101190004FF000058046DFF84C9017E098F801000A
:1011A000384400F108004FEAE07200EB527222F07E
:1011B0000702A0EB0200C0B288F8010019F8000095
:1011C00002F0F2FE012000F06DFD6D1CB542E5D38A
:1011D000002002F0E9FE88F80040BDE8F08700003A
:1011E000B8000020F87F0008FEE700002DE9F0417C
:1011F0000446B0F80700314EB0F5FA7F05D8B4F9CF
:10120000090041F27071884210DD01221021304640
:1012100000F05BFE01222021304600F056FE002245
:101220008021304600F051FE00201BE0617C244DFF
:101230000027D9B1E07C012832D02F800022102174
:10124000304600F042FE00BFB4F80500B0F5FA6F7A
:1012500024D901222021304600F037FE207C0028CE
:101260001CD10A20BDE8F041FFF776BF217D01299E
:1012700002D02178012910D140F6AC5188420CDD12
:10128000012210210F4800F020FE1E20FFF764FF0E
:1012900001221021304600F018FE2F80BDE8F081B9
:1012A0002888401C80B228801E28CDD3012210211E
:1012B000304600F00AFE1E202880C5E700080140E5
:1012C000E00000200010014070B505464FF6FF70A9
:1012D00000224AF201040BE0AB5C58400823C60729
:1012E0004FEA500000D060405B1EF8D1521C92B211
:1012F0008A42F1D370BD0000014800F039BB000004
:10130000DC020020014800F033BB00002003002075
:10131000014800F02DBB00006403002030B590F8B8
:1013200040500124AC40C56B6C6004686360436846
:10133000102B036803D099600068C26030BD9A60CA
:101340000068C16030BD704772B6FEE7F8B5002492
:10135000009490F824202546012A12D0012280F81A
:1013600024204A681F23072A0DD20668776B521E75
:1013700002EB820293409F430B6893401F437763C5
:1013800019E00220F8BD06680D2A0AD2376BD21F79
:1013900002EB820293409F430B6893401F433763E5
:1013A00009E0F76A0D3A02EB820293409F430B6813
:1013B00093401F43F7620A68072306680A2A0AD384
:1013C000F7680A3A02EB420293409F438B689340CE
:1013D0001F43F76008E0376902EB420293409F43E6
:1013E0008B6893401F4337610A68102A01D0112A85
:1013F00020D1124B02689A4217D193681B0219D46C
:10140000936843F4000393600968102912D10C49D2
:101410000C4A0968B1FBF2F101EB8101490000E0DF
:10142000491E00910029FBD104E0816A41F02001AE
:101430008162012480F824502046F8BD0024014038
:101440002C00002040420F000068C06C7047000074
:101450002DE9F04104004FF000057FD0A06A00267E
:1014600028B9E66284F82460204600F081F820461E
:10147000FFF714FBA16AC90600D420B1A06A40F0AE
:101480001000A0626AE0A16A21F4885141F00201D3
:10149000A162334923688B42E16904D1B1F5402F41
:1014A00001D14FF40021277B4FF4807C41EA4702B1
:1014B00061680A43A168614508D0012906D000216E
:1014C00094F814E0BEF1010F02D00AE06146F7E79C
:1014D000C7B1A76A47F02007A762E76A47F001078C
:1014E000E7625F6827F469470F435F602368996884
:1014F0001C4F394011439960A16861450BD0012907
:1015000009D00CE0DFF860E0A7690EEB47370F4326
:1015100047F40061E5E7218A0D05A5F580152168EE
:10152000CB6A23F470032B43CB62216889680F4B8D
:101530001940914208D1E662A16A21F0020141F00E
:101540000101A162BDE8F081A06A20F0020040F034
:101550001000A062E06A40F00100E0620120F1E7C3
:10156000003C0140FDF7E1FF00E0FFFFFE0E1FFF22
:1015700000B585B0002100910191029103910068AE
:101580000E49884218D10E48816941F48061816119
:10159000816901F480610491816941F010018161E8
:1015A0008069694600F01000049008200090032034
:1015B0000190044800F088FB05B000BD0028014000
:1015C00000100240001001402DE9F84300270D46AD
:1015D0000446009700F07EFC804620688168C905BB
:1015E00008D5A06A40F02000A06284F82470012091
:1015F000BDE8F8834168C90503D4C06A10F4700FD0
:101600002AD0022000F0E6FF3B490968B1FBF0F662
:101610002068036939490B424FEA61014FEAA11280
:101620001FD1C3684FEA611C13EA0C0F19D103697B
:101630000B4225D1C068104222D1142023E0681C3F
:101640000AD02DB100F046FCA0EB0800A84203D957
:1016500020680068800725D5206800688007EED5DF
:101660002DE003690B4202D1C168114206D0026924
:1016700023490A4206D1C068084203D1542002E03F
:10168000292000E0FC204643009816E0681C11D099
:101690002DB100F01FFCA0EB0800A8420AD9009869
:1016A000B04207D2A06A40F00400A06284F824701F
:1016B00003209DE70098401C0090B042E6D32168CB
:1016C0006FF012000860A06A40F40070A062206809
:1016D0008068C0F3424007280CD1207B50B9A06A33
:1016E00020F48070A062A06AC00403D4A06A40F015
:1016F0000100A06200207BE72C00002024499224F6
:101700004992240070B5044690F8240001280DD0B9
:10171000012084F824002046FFF7ECF902004FF086
:10172000000005D084F82400104670BD022070BD72
:10173000A16A40F20123994341F48071A1621F4DD7
:1017400023681F49AB4218D10E6816F4702F14D0CD
:10175000A66A46F48016A6620E68760505D5A66AC6
:1017600026F4005646F48056A662A66AF6040AD508
:10177000E66A26F00606E66206E0A66A26F4801609
:10178000A6625E68E9E7E06284F824006FF0020078
:10179000186020688368C3F34243072B05D1A84231
:1017A00008D1096811F4702F04D0816841F48011C8
:1017B0008160B9E7816841F4A001F9E700280140A0
:1017C0000424014010B5044690F82400012807D0F5
:1017D000012084F824002046FFF760F910B107E0EB
:1017E000022010BDA16A21F4885141F00101A162DB
:1017F000002184F8241010BD10B590F821100022AB
:10180000022905D00421816380F82020012010BD29
:1018100001680B6823F00E030B6001680B6823F06E
:1018200001030B6090F84030C46B012101FA03F30F
:10183000636080F8211080F82020104610BD000061
:101840002DE9F05F90F821100024022903D0042133
:101850008163012485E001680A6822F00E020A60B3
:1018600001680A6822F001020A603F4E3E4FB2153D
:10187000DFF8F4C0DFF8F090DFF8ECA0DFF8E8B0B4
:10188000DFF8E4E00168783F13011502ACF1640C65
:10189000A9F15009AAF13C0AABF1280BAEF1140EE4
:1018A0004FF48018B14227D9B9420ED0614512D009
:1018B00049451DD0514518D0594518D0714501D121
:1018C000424615E0294EB14201D1012210E0274ED7
:1018D0001436B14201D110220AE0244E2836B1421A
:1018E00006D0224A3C32914201D11A4600E02A46F3
:1018F0001E49091F0A602BE0B94213D0614517D079
:10190000494522D051451DD059451DD0714501D1C1
:1019100042461AE0B14202D14FF0807215E0134EF8
:10192000B14201D1012210E0104E1436B14201D172
:1019300010220AE00D4E2836B14206D00B4A3C3246
:10194000914201D11A4600E02A46074980394A608F
:10195000012180F82110002180F82010416B01B195
:1019600088472046BDE8F09F8000024008040240FE
:101970002DE9F05FC16B0A6801680B68046C4FF0D9
:10198000040808FA04F8844D844E854FDFF814C229
:10199000DFF81492DFF814A2DFF814B2DFF814E2D3
:1019A00018EA020F65D05FEA437862D50A689206AA
:1019B00003D40A6822F004020A60DFF8F0814FF4D1
:1019C0008062016808F1140813011402414524D90A
:1019D000A9420DD0B1420FD0B9421AD0614515D0FD
:1019E000494515D0514501D1120312E0594501D1A5
:1019F00004220EE0714501D140220AE06D4D1435FC
:101A0000A94206D06B4A2832914201D11A4600E021
:101A100022466749091F0A6029E0A94213D0B14252
:101A200015D0B94220D061451BD049451BD0514546
:101A300002D14FF4800217E0414502D14FF080629D
:101A400012E0594501D104220EE0714501D1402236
:101A50000AE0584D1435A94206D0564A2832914220
:101A600001D11A4600E022464B4908394A60C16A52
:101A700071E04FF0020808FA04F818EA020F70D07B
:101A80005FEA83786DD50A68920606D40A6822F068
:101A90000A020A60012180F82110DFF810814FF45A
:101AA0000072016808F1140813011402414524D999
:101AB000A9420DD0B1420FD0B9421AD0614515D01C
:101AC000494515D0514501D1120312E0594501D1C4
:101AD00002220EE0714501D120220AE0354D143575
:101AE000A94206D0334A2832914201D11A4600E079
:101AF00022462F49091F0A6029E0A94213D0B142AA
:101B000015D0B94220D061451BD049451BD0514565
:101B100002D14FF4001217E0414502D14FF000729C
:101B200012E0594501D102220EE0714501D1202277
:101B30000AE0204D1435A94206D01E4A28329142AF
:101B400001D11A4600E02246134908394A600021B3
:101B500080F82010816A00291CD0BDE8F05F08479A
:101B6000FFE70825A540154214D01A0712D50A68C8
:101B700022F00E020A6090F84020C36B012101FAA6
:101B800002F25A60816380F82110002180F8201051
:101B9000016BE0E7BDE8F09F080002401C00024036
:101BA0003000024044000240580002406C000240F5
:101BB000080402401C04024030B560B11A4B0268B0
:101BC00014219A4209D2194B1344B3FBF1F1890055
:101BD000016417490AE0012030BD134B5B421344F6
:101BE000B3FBF1F1890001640F490839C163022197
:101BF00080F82110136843F6F0718B43F0E901146B
:101C00002143D0E902452C4321430469214344691F
:101C1000214384692143194311600021416301225A
:101C200042770177084630BD08040240F8FFFDBF47
:101C30000000024070B5044690F8200000250128FD
:101C40000CD0012084F8200094F821600020012E9F
:101C500006D084F820000225284670BD022070BD01
:101C6000022684F82160A0632068066826F0010639
:101C700006602046FFF752FBE06A002820680168F2
:101C800002D041F00E0106E021F00401016020685D
:101C9000016841F00A0101602068016841F001011A
:101CA0000160D9E770B5044600F014F90546601CE0
:101CB00002D004480078044400F00CF9401BA04214
:101CC000FAD370BD200000202DE9F84FDFF8C8914D
:101CD0000024A9F1040B23460F2709F1040AABF1F4
:101CE000040ED1E00125A54006EA0502AA4276D1FC
:101CF000DFF8A8C14E68A6EB0C0866452BD00DDCBA
:101D0000032E34D005DC36B3012E19D0022E2FD18C
:101D10001BE0112E16D0122E2AD119E0B8F5881F1B
:101D200019D006DCB8F5803F15D0B8F5801F1FD15B
:101D300011E0B8F5001F0ED0B8F5041F18D10AE065
:101D4000CB6815E0CB681B1D12E0CB6808330FE0B1
:101D5000CB680C330CE08B682BB1012B4FF00803E0
:101D600003D0456104E0042302E0056100E00023A4
:101D7000FF2A01D8064601E000F104064FEA840577
:101D800001D9A5F12005D6F8008007FA05FC28EA5C
:101D90000C0803FA05F548EA0508C6F800804D6806
:101DA000ED0070D53E4DAE6946F00106AE61AD69FD
:101DB00024F0030605F0010500953A4D06EB050CED
:101DC000DCF80850A607360F07FA06F825EA0805DA
:101DD000DFF8D480404503D14FF0000825E052E001
:101DE000DFF8C880404502D14FF001081DE0DFF860
:101DF000C080404502D14FF0020816E0DFF8B48001
:101E0000404502D14FF003080FE0DFF8AC804045B9
:101E100002D14FF0040808E0DFF8A080404502D16D
:101E20004FF0050801E04FF0060808FA06F848EA06
:101E30000508CCF808804D68D9F80060ED024D46E1
:101E400001D5164300E096432E604D68DAF8006035
:101E5000AD02554601D5164300E096432E604D680D
:101E6000DBF80060AD035D4601D5164300E0964304
:101E70002E604D68DEF80060ED03754601D516430F
:101E800000E096432E60641C0A681646E2407FF428
:101E900029AFBDE8F88F00000804014000001110D0
:101EA000001002400000014000080140000C014009
:101EB000001001400014014000180140001C0140C6
:101EC0008068084000D0012070470AB10161704766
:101ED0000904FBE7014880687047000020000020EB
:101EE00070B5040025D094F83D00002520B984F891
:101EF0003C50204600F076FA242084F83D0020680B
:101F0000016821F0010101602068016841F400418D
:101F100001602068016821F40041016000F0E2FCEA
:101F20004D4A6168914201D84C4900E04C498842D1
:101F300001D2012070BD4B492368B0FBF1F15E680E
:101F400026F03F060E435E606368934206D94FF465
:101F5000967359434FF47A73B1FBF3F12368491C2C
:101F60001E6A26F03F06314319626168914210D81B
:101F70004900401EB0FBF1F2521CC2F30B02042ACE
:101F800001D2042022E0B0FBF1F0401CC0F30B00B2
:101F90001CE0A268F2B301EBC10303EB0116431E80
:101FA000B3FBF6F35B1C43F480431B0549D092B3AB
:101FB00001EBC10202EB0111401EB0FBF1F0401C2D
:101FC000C0F30B0040F4804040F400402168CA692F
:101FD0004CF6FF739A431043C861D4E907100143DC
:101FE0002068026822F0C00211430160D4E90301B5
:101FF00001432068826848F2FF339A4311438160AD
:10200000D4E9050108432168CA6822F0FF021043A1
:10201000C86001E00EE016E02068016841F00101AF
:1020200001602564202084F83D00256384F83E503B
:10203000002070BD01EB4106431EB3FBF6F35B1CB1
:10204000B3E70120C2E701EB4101401EB0FBF1F014
:10205000401CC0F30B00B7E7A086010080841E007F
:1020600000093D0040420F002DE9F84F0025DDF842
:102070002890984617468A4604460095FFF72AFF9F
:10208000064694F83D0020287AD11923012286497A
:102090002046009601F0E6FB0028F5D194F83C00BC
:1020A00001286DD0012084F83C0020680168C90730
:1020B00003D1016841F0010101602068016821F449
:1020C00000610160222084F83D00102084F83E0069
:1020D00025646762A4F82A80608D20857348E062D9
:1020E00033464A465146204601F0CCFA00287CD1BE
:1020F000208DDFF8BC81202768B1012814D0022888
:10210000206801681ED041F4806101602068416947
:1021100080690090BBE02068416981690091016895
:1021200041F400710160B2E02068016821F480612F
:10213000016072B62068416981690091016841F4CB
:1021400000710AE041F40061016072B620684169E3
:1021500081690091016821F48061016062B696E0B6
:10216000032865D801280CD002284B464FF0000206
:102170004146204600960BD001F074FBA8BB0CE052
:1021800090E032464946204601F012FC68BB71E0FF
:1021900001F068FB48BB72B633E02068016821F4A7
:1021A0008061016072B620680069616A0870606AC7
:1021B000401C6062208D401E2085608D401E608521
:1021C0003C4846F2A8110068B0FBF1F0C0EBC0003B
:1021D00000EB80000090401E009007D0206840690E
:1021E000C04340070DD50098F5E727E044F8305F7D
:1021F0006773A573206940F02000206162B62573E3
:102200001CE02068016841F40071016020680069E9
:10221000616A0870606A401C6062218D491E2185D8
:10222000618D491E618562B621680969017025E0EA
:1022300032464946204601F0BBFB10B10120BDE803
:10224000F88F20680069616A0870606A401C6062EB
:10225000208D401E81B22185608D401E60852068E2
:102260004269D243520712D4032903D1016821F4F1
:102270008061016020680069616A0870606A401CC2
:102280006062208D401E2085608D401E6085208DFF
:1022900000287FF465AF84F83D7084F83E5084F8E0
:1022A0003C50CCE70220CAE7020010000000FFFF0C
:1022B000040001002C0000202DE9F84F1F46904635
:1022C0008A460446DDF82890FFF704FE054694F898
:1022D0003D0020287FD11923012240492046009546
:1022E00001F0C0FA002876D194F83C00012872D0A1
:1022F000012084F83C0020680168C90703D1016807
:1023000041F0010101602068016821F40061016071
:10231000212084F83D00102084F83E000026266429
:10232000C4F824806785608D20852D48E0622B46A7
:102330004A465146204601F01BFA90B9206841698F
:102340008069009036E02A464946204601F068FB45
:1023500050B1206C042804D12068016841F4007158
:1023600001600120BDE8F88F606A2168007808618B
:10237000606A401C6062618D491E6185218D491E25
:1023800089B2218522685369DB435B070BD451B1C5
:1023900000781061606A401C6062608D401E60853C
:1023A000208D401E20852A464946204601F02EFAFF
:1023B0000028CED1208D0028C5D154F83D0B0168EE
:1023C00041F400710160202004F81E09E677667769
:1023D0000020C7E7FFE70220C4E70000020010006A
:1023E0000000FFFF10B586B000210091019102911D
:1023F000039100680F4988421AD10F4CA06940F040
:102400000800A061A069694600F008000490C0209F
:10241000009012200190032003900848FFF754FC1D
:10242000E06940F40010E061E06900F400100490FD
:1024300006B010BD0054004000100240000C0140E6
:1024400002488168027811448160704720000020B2
:10245000074810B5016841F010010160032000F049
:10246000A7F80F2000F006F800F050F8002010BD8B
:102470000020024030B505461F4887B0C16941F0D1
:102480001001C161C06906A900F01000009001A808
:1024900000F008FA0498B0B100F024FA400017499F
:1024A000174AB0FBF1F11748491E0260416040F243
:1024B000E7320021C0E903218160816100F0EAFB7D
:1024C000040003D015E000F00DFAE8E70D4800F035
:1024D0000FFC04000DD1362000F03CF8102D07D27F
:1024E00000222946362000F043F80748056000E046
:1024F000012407B0204630BD0010024040420F00CA
:1025000000100040A8030020240000200F4808B558
:10251000816941F001018161816901F0010100914E
:10252000C16941F08051C161C069002200F0805052
:1025300000900F21901E00F01BF80548416821F023
:10254000E06141F00071416008BD000000100240F0
:1025500000000140002809DB00F01F02012191402A
:102560004009800000F1E020C0F800117047000031
:10257000F0B40E4B1B680C46C3F30223C3F10705EE
:10258000042D00D90425191D072901D2002300E0DC
:10259000DB1E012606FA05F1491E214099409E40A6
:1025A000761E16403143F0BC02F01CBB0CED00E07F
:1025B000064900F0070208684FF6FF03184040EA9A
:1025C0000220034A10430860704700000CED00E051
:1025D0000000FA0510B501460020284C04292FD030
:1025E0000BDC012930D0022929D100F08BF9616878
:1025F000C1F38131491C49001FE0082920D010296E
:102600001DD161682268D20119D51D48C1F38342EA
:10261000C903805C0AD56168194AC1F34041921E22
:10262000515C184AB2FBF1F1484301E016494843B6
:102630006168490203D440000321B0FBF1F010BDF2
:10264000BDE8104000F06EB9226AC2F301210129F1
:1026500003D1920701D5C80310BD022905D1626AD2
:10266000920702D549F6404010BD0329FCD12168EC
:102670008903F9D54FF2244010BD0000001002403C
:10268000D07F000800127A0000093D002DE9F843D0
:1026900005460078354CC00754D0E0690026C000DC
:1026A00008D4E06940F08050E061E069012600F064
:1026B000805000902E480168C90512D401688046F8
:1026C00041F480710160FFF705FC074605E000BF9B
:1026D000FFF700FCC01B642823D8D8F80000C00511
:1026E000F6D5206A10F4407021D0A98801F4407119
:1026F00081421CD0206A1F49012220F440700A60E8
:1027000000220A602062C00711D0FFF7E3FB0746F2
:1027100041F2883808E000BFFFF7DCFBC11B4145F0
:1027200002D90320BDE8F883206A8007F4D5206A27
:10273000696820F44070084320621EB1E06920F00F
:102740008050E0612878800705D56068A96820F48A
:102750004040084360602878C00605D56068696914
:1027600020F48000084360600020DBE70010024096
:1027700000700040400442422DE9F0470F4605003A
:1027800061D0434E306800F00700B84209D230688B
:1027900020F0070038433060306800F00700B8428E
:1027A00051D128683B4C810712D5400703D560689A
:1027B00040F4E06060602878000703D5606840F46A
:1027C000605060606068A96820F0F00008436060B5
:1027D0002878C00728D06868012810D0216802280E
:1027E00010D0890700292EDA616821F00301014326
:1027F0006160FFF76FFB804641F288390DE0216888
:102800008903EFE78901EDE7FFF764FBA0EB08011F
:10281000494502D90320BDE8F0876068696800F087
:102820000C00B0EB810FEFD1306800F00700B84228
:102830000BD9306820F0070038433060306800F072
:102840000700B84201D00120E5E72878400705D508
:102850006068E96820F4E060084360602878000759
:1028600006D56068296920F4605040EAC1006060C4
:1028700000F058F86168084AC1F30311515CC84080
:102880000649086006480068FFF7F4FD0020C2E72B
:102890000020024000100240E07F00082C000020D1
:1028A000240000200F2202600C4A536803F0030347
:1028B0004360536803F0F0038360536803F4E063FC
:1028C000C36052684FF4E06303EAD2020261044835
:1028D000006800F007000860704700000010024028
:1028E000002002400448054900684968044AC1F3D1
:1028F0000221515CC84070472C00002000100240AB
:10290000F07F00080448054900684968044AC1F39B
:10291000C221515CC84070472C00002000100240CA
:10292000F07F00080E4A51680E4801F00C03042B9A
:1029300011D0082B0FD10C48C1F38343C903C05CED
:102940000AD55168084AC1F34041921E515C054ABC
:102950005043B0FBF1F07047044948437047000012
:102960000010024000127A00BE7F000800093D00FE
:102970002DE9F84F040070D02078C04DC00749D031
:102980006868C0F38100012807D06868C0F381003F
:10299000022809D16868C00306D52868800339D5A4
:1029A00060680028E7D035E06068B0F5803F0BD064
:1029B00010B1B0F5A02F11D0286820F48030286025
:1029C000286820F4802002E0286840F480302860E5
:1029D000606890B1FFF77EFA06460AE0286840F486
:1029E00080202860F0E700BFFFF774FA801B64289E
:1029F00073D828688003F7D50CE0FFF76BFA06461A
:102A000005E000BFFFF766FA801B6428F0D828684D
:102A10008003F7D420789A4E80074FF001094FF0D9
:102A2000000839D5686810F00C0F07D06868C0F34B
:102A30008100022809D16868C00306D4286880078D
:102A400014D52069012808D110E02069B0B1C6F87A
:102A50000090FFF73FFA074605E00AE1FFF73AFA70
:102A6000C01B0228C4D828688007F7D52868616988
:102A700020F0F80040EAC10028600DE0C6F80080B0
:102A8000FFF728FA074604E0FFF724FAC01B0228E4
:102A900023D828688007F7D4207800072CD57948F8
:102AA000A169D9B1C0F80090FFF714FA074604E015
:102AB000FFF710FAC01B02280FD8686A8007F7D505
:102AC00071484FF4FA510068B0FBF1F0009000BF7C
:102AD0000098411E0091FAD20EE080E0C0F800801C
:102AE000FFF7F8F9074604E0FFF7F4F9C01B0228E6
:102AF00075D8686A8007F7D42078400760D5E86900
:102B00000027C00008D4E86940F08050E861E86917
:102B1000012700F0805000905C480168C90513D47B
:102B20000168834641F480710160FFF7D3F9824662
:102B300006E000BFFFF7CEF9A0EB0A0064284ED8EC
:102B4000DBF80000C005F5D5E06801280AD008B11F
:102B5000052813D0286A20F001002862286A20F096
:102B6000040002E0286A40F001002862E06841F2B7
:102B7000883B98B1FFF7AEF982460BE0286A40F037
:102B800004002862EEE700BFFFF7A4F9A0EB0A01FA
:102B900059455AD8286A8007F6D50CE0FFF79AF90C
:102BA000824605E0FFF796F9A0EB0A0159454CD89B
:102BB000286A8007F6D41FB1E86920F08050E861E8
:102BC000E06988B36968C1F38101022944D0022811
:102BD000C6F8608004D0FFF77DF9044638E034E0A1
:102BE000FFF778F9074604E0FFF774F9C01B0228E5
:102BF0002BD828688001F7D4206AB0F5803F05D132
:102C00006868A16820F4003008436860D4E90801CE
:102C10000843696821F4741108436860C6F860903D
:102C2000FFF758F9044606E025E000BFFFF752F928
:102C3000001B022809D828688001F7D51BE000BFD7
:102C4000FFF748F9001B022802D90320BDE8F88FDE
:102C500028688001F4D40EE00128F7D06868226A61
:102C600000F48031914204D1616A00F4701088420E
:102C700001D00120EAE70020E8E700000010024050
:102C800000004242800442422C00002000700040BC
:102C90007047704710B5040003D094F83D0010B1A0
:102CA00007E0012010BD002084F83C00204600F021
:102CB0001EF8022084F83D00211D206801F00CFA66
:102CC000012084F8460084F83E0084F83F0084F830
:102CD000400084F8410084F8420084F8430084F8FE
:102CE000440084F8450084F83D00002010BD704782
:102CF00090F83D10012901D001207047022180F891
:102D00003D100168CA6842F00102CA6000680E49BD
:102D100088420ED00D4988420BD0B0F1804F08D0C8
:102D20000B49884205D00B49884202D00A498842A3
:102D300004D1816801F00701062903D0016841F040
:102D40000101016000207047002C01400034014067
:102D50000004004000080040000C004070472DE9CE
:102D6000F04104460068C66805694FF00007A907EE
:102D700013D5B10711D5F91E016101202077206814
:102D800080698007204602D0FFF7E8FF04E000F0EA
:102D90007EF8204600F07CF82777680716D5700784
:102DA00014D521686FF004000861022020772068A4
:102DB000806910F4407F204602D0FFF7CFFF04E087
:102DC00000F065F8204600F063F82777280715D54E
:102DD000300713D521686FF00800086104202077C0
:102DE0002068C0698007204602D0FFF7B7FF04E0E3
:102DF00000F04DF8204600F04BF82777E80616D58E
:102E0000F00614D521686FF01000086108202077C3
:102E10002068C06910F4407F204602D0FFF79EFF73
:102E200004E000F034F8204600F032F82777E80795
:102E300008D0F00706D021686FF001000861204635
:102E400000F028F8280608D5300606D521686FF06E
:102E5000800008612046FFF71BFF680608D5700652
:102E600006D521686FF040000861204600F01CF88C
:102E7000A8060AD5B00608D521686FF020000861C1
:102E80002046BDE8F041FFF704BFBDE8F081704780
:102E90007047000000680349884201D1FFF7D0BAAB
:102EA0007047000000100040704738B5044690F8A5
:102EB0004200202801D0022038BD51B14AB1012082
:102EC000206300206063204601F0B8FD216B0129DA
:102ED00001D0012038BD21680A6849680091216845
:102EE0000C3151E8002F42F0100241E80023002B82
:102EF000F5D138BD38B50D460446006815498842FD
:102F00001AD10020009014A001F048FE17486B462B
:102F10002A461549006804F08DFB802212491448A6
:102F2000FFF7C3FF009838B112494FF08050086096
:102F3000BFF34F8FBFF36F8F0F492068884207D1CF
:102F4000284600F0D7FFBDE8384003A001F026BEB8
:102F500038BD000000380140646562756720726505
:102F600063656976650A00001C380020DC000020DB
:102F70000402002004ED00E000440040704700001F
:102F8000F8B5016804460868CA684B6910F00F0F6D
:102F90004FF0000559D003F0010602F49077374353
:102FA00065D0C10705D0D10503D5616C41F00101A1
:102FB0006164410705D5D90703D0616C41F0020176
:102FC0006164810705D5D90703D0616C41F0040124
:102FD0006164010707D502F02001314303D0616C21
:102FE00041F008016164616C00293AD0800604D583
:102FF000900602D5204601F063FC20684069616CB0
:10300000C0F38010090700D460B3204601F023FC10
:1030100020684069400621D52068143050E8001F20
:1030200021F0400140E80012002AF5D1E06BA8B180
:103030006D494163E06BFEF703FC002811D0E06BA3
:10304000416B01B0BDE8F040084783060FD59306F9
:103050000DD52046BDE8F84001F032BC2046FFF710
:103060008DFFF8BD2046FFF789FF6564F8BD266B2C
:103070002023012E7CD1C6067AD5D60678D50868DD
:103080004868009048694FF00206400640D5E16B61
:10309000086840680004000CE8D0A28D8242E5D99F
:1030A000E085886920282DD020680C3050E8001F6A
:1030B00021F4807140E80012002AF5D12068143014
:1030C00050E8001F21F0010140E80012002AF5D16C
:1030D0002068143050E8001F21F0400140E8001241
:1030E000002AF5D184F84230256320680C3050E87E
:1030F000001F21F0100140E80012002AF5D1E06B1A
:10310000FEF77AFB6663A08DE18D401A81B22AE05A
:10311000A08DE18D401A81B2E08D0028A6D0002953
:10312000A4D022680C3252E8000F20F4907042E8DC
:103130000007002FF5D12068143050E8002F22F04E
:10314000010240E80027002FF5D184F842302563C2
:1031500020680C3050E8002F22F0100240E80023D5
:10316000002BF5D166632046FFF7C4FEF8BDFFE7EC
:1031700005062BD5150629D594F841002128F5D14F
:10318000A068B0F5805F01D12069B0B1206A411C10
:103190002162216800784860E08C401E0004000C29
:1031A000E084E3D12068C16821F08001C16020681B
:1031B000C16841F04001C160D8E7206A0088C0F3CF
:1031C00008004860206A801C2062E5E74006CDD5F3
:1031D0005006CBD5CA68204622F04002CA6084F867
:1031E000413000F035FAC1E70D47000870B5040022
:1031F00004D094F84100002510B106E0012070BD14
:1032000084F84050204600F023F8242084F8410040
:103210002068C16821F40051C160204601F0B2FB72
:103220002068016921F4904101612068416921F021
:103230002A0141612068C16841F40051C1606564A0
:10324000202084F8410084F842006563002070BDAE
:103250002DE9F04F85B0002400940194029403946A
:10326000054603689648954F061502210322DFF8AC
:1032700054C24FF4006ABB4225D1C36943F4002312
:10328000C361C36903F400230493836943F010030B
:1032900083618069CDE9006100F01000CDE9032071
:1032A000694665466046FEF70FFDCDE900A4694614
:1032B00028460294FEF708FD002205213420FFF77E
:1032C00057F9342033E0DFF800824FF480574FF095
:1032D0000409434530D1C36943F48013C361C36912
:1032E00003F480130493836943F0100383618369BB
:1032F00003F010030493836943F020038361806922
:10330000CDE9007100F02000CDE903206946604658
:10331000FEF7DAFCCDE9009469466C480294FEF7AA
:10332000D3FC002205213520FFF722F93520FFF7D5
:1033300011F905B0BDE8F08FDFF894C1DFF8948192
:103340004FF0800B634550D1836943F48043836120
:10335000836903F480430493836943F00403836126
:103360008069039200F0040004904FF40070CDE9EE
:10337000000169464046FEF7A7FCCDE900646946B6
:1033800040460294FEF7A0FC544E5348D84601C66E
:103390001020A6E81101514846F810497461C6E9A9
:1033A0000647FEF709FC08B1FDF7CEFFAE63756274
:1033B0004A4E494844361430C6E90004C6E902487A
:1033C00034614FF400507461C6E906403046FEF7A0
:1033D000F3FB08B1FDF7B8FFEE63002205212520BD
:1033E0007562FFF7C5F82520A1E7DFF8F4C0634553
:1033F00039D1C36943F40033C361C36903F40033B3
:103400000493836943F0040383618069CDE90091EB
:1034100000F00400CDE9032069464046FEF754FC65
:103420000820CDE90004694640460294FEF74CFCB2
:103430002A4E294888362830C6E90004C6E9024BDE
:1034400034617461C6E906473046FEF7B5FB08B142
:10345000FDF77AFFEE630022052126207562FFF753
:1034600087F8262063E71F4DAB427FF462AFC36944
:1034700043F48023C361C36903F480230493836905
:1034800043F0080383618069CDE9006100F0080022
:10349000CDE90320144D69462846FEF715FCCDE919
:1034A00000A4694628460294FEF70EFC002205217E
:1034B0002720FFF75DF8272039E70000004C004087
:1034C0000010024000100140005000400014014074
:1034D000003801400008014044000240DC020020A6
:1034E0000044004000480040000C014090F8423089
:1034F000202B01D00220704721B11AB100230363B1
:1035000001F0E4BA0120704710B50446006807498D
:10351000884201D1FDF786FB05492068884204D125
:103520002046BDE8104003F027B810BD0048004019
:10353000004C004070472DE9F843044690F84100E4
:10354000984616460D46202802D00220BDE8F88392
:1035500085B17EB100206064212084F84100FEF72F
:10356000B9FCA6848146E684A0682027B0F5805F78
:1035700002D003E00120E9E7206910B12E460025C2
:103580000EE000260CE08021204601F0BAFAA8B92E
:10359000C6B116F8010B21684860E08C401EE0843B
:1035A000E08C4B464FF00002CDF800800028EAD1B5
:1035B0004FF04001204601F0A4FA40B184F8417078
:1035C0000320C3E735F8020BC0F30800E3E784F8F3
:1035D00041700020BAE7000070B5044690F8410041
:1035E000202801D0022070BD49B342B32162A284D9
:1035F000E28400206064212384F84130A56B114BE4
:10360000AB62A56B104BEB62A56B104B2B63A36BEE
:103610005863256813462A1DA06BFEF70BFB216833
:103620006FF0400008602068143050E8001F41F03F
:10363000800140E80012002AF5D1002070BD012071
:1036400070BD00000B4800084D4800081D470008E9
:1036500070477047FEE701684A69D24352050FD4AC
:103660006FF480624A61002140F8301F20224273CB
:103670008173026942F00402026101730120704704
:10368000002070472DE9F84F0446C06A1E46934655
:103690000D4621680A6842F480620A60082807D053
:1036A000012805D010F5803F02D0206B112804D1ED
:1036B0002068016841F4807101604FF001195B4698
:1036C000002249462046009600F0CCF84FF40078DE
:1036D00040B120680068C00501D5C4F840800320CF
:1036E000BDE8F88F2069DFF884A0B0F5804F0FD0D7
:1036F0000620216800EAD51747F0F000086133463C
:103700005A460AF10601204600F0F4F858BB03E0DF
:10371000E8B240F001001CE02168E8B208613346DD
:103720005A465146204600F0E5F8E0B92068416964
:1037300081690091016841F4807101605B4600225B
:1037400049462046009600F08DF80028C1D147F088
:10375000F1002168086133465A465146204600F080
:10376000C9F80028BCD00120BAE70000020001001F
:10377000F8B50446C06A1E460D461746082807D00D
:10378000012805D010F5803F02D0206B122804D10B
:103790002068016841F480710160134600224FF0F7
:1037A00001112046009600F05DF840B120680068E5
:1037B000C00502D54FF4007020640320F8BD2069D5
:1037C000B0F5804F0ED00620216800EAD51040F0F9
:1037D000F000086133463A460B49204600F08AF86B
:1037E00078B902E005F0FE0000E0E8B22168086167
:1037F000054933463A46891F204600F07BF80028E9
:10380000DCD00120F8BD00000800010070B51646AC
:103810000D4604461EE02046FFF71DFF08B10120BB
:1038200070BD681C16D0FEF755FB801BA84200D85F
:1038300085B920684069C04340070BD5002044F893
:10384000300F20216173A073216941F020012161B3
:103850002073E4E720684069C0434007DBD40020C0
:1038600070BD00002DE9F047984617460D46044606
:10387000C1F30746DDF820902AE000BFB8F1FF3F12
:1038800026D0FEF727FBA0EB0901414502D8B8F18D
:10389000000F1DD12068012E16D0806925EA000096
:1038A0000004000C12D00020B84211D1002044F8CE
:1038B000300F20216173A073216941F02001216143
:1038C00020730120BDE8F0874069E7E70120EBE7BE
:1038D0002068012E0AD0806925EA00000004000C4F
:1038E00006D00020B842C9D00020EBE74069F3E7DA
:1038F0000120F7E72DE9F047984616460D460446A5
:103900004FF000094FF0200AC1F3074723E0206879
:103910004069C043400515D42068016841F4007136
:10392000016021686FF480604861C4F8309084F8C9
:103930003DA084F83E90216C41F00401216484F89C
:103940003C9021E0701C06D0FEF7C4FAA0EB080002
:10395000B04203D816B1012F1FD021E02068012FFB
:1039600015D0806925EA00000004000C18D000BFC3
:1039700044F8309F84F80DA084F80E90216941F03E
:103980002001216184F80C900120BDE8F087406996
:1039900025EA00000004000CEAD12068406901E03B
:1039A0002068806925EA00000004000CAFD1ECE734
:1039B0002DE9F041002590460E460446202728E0D8
:1039C0004069C043C0060CD454F8301B6FF010009F
:1039D000486144F810596777A577206A20622577F7
:1039E00014E0FEF777FAA0EB0800B04200D886B9E1
:1039F00020684069C04340060BD544F8305F6773C8
:103A0000A573206940F02000206125730120BDE8E6
:103A1000F08120684169C9434906D1D40020F6E706
:103A200070B516460D4604461EE02046FFF713FE0D
:103A300008B1012070BD681C16D0FEF74BFA801B40
:103A4000A84200D885B920684069C04300060BD55C
:103A5000002044F8300F20216173A073216941F0E8
:103A6000200121612073E4E720684069C04300061B
:103A7000DBD4002070BD00002DE9F0410546274849
:103A800090460A46814200DA0246254C10462146FD
:103A9000FCF776FC234E3146FCF740FC0746014616
:103AA0003046FCF735FC3946FCF76AFC1E49FCF74A
:103AB00067FC074621462846FCF762FC3146FCF7C6
:103AC0002DFC1A4D0446A84200DA2C462146304609
:103AD000FCF71EFC2146FCF753FC3946FCF750FC72
:103AE0000446A84200DA2C4621460846FCF716FC9C
:103AF0002146FCF713FC01460D48FCF741FC41460A
:103B0000FCF70CFC0B4910F1FF4F02D30020BDE87D
:103B1000F0818842FBDD0846F9E700000000C8425A
:103B200000F07F450000A040CDCC1C41CDCCCC3D69
:103B30000000164400401C463EB500241148009485
:103B4000019402940E498460016004730475012598
:103B500005614FF460214460C161FDF779FC08B153
:103B6000FDF7F2FB0D20CDE90005694602940548FA
:103B7000FDF7ECFB002801D0FDF7E6FB3EBD0000A1
:103B800000280140F0000020114808B5416941F0CB
:103B9000010141614069002200F00100009005210F
:103BA0000E20FEF7E5FC0E20FEF7D4FC00220521D6
:103BB0000F20FEF7DDFC0F20FEF7CCFC00220521D4
:103BC0001020FEF7D5FCBDE808401020FEF7C2BC6F
:103BD0000010024010B51B4801F039FD1A4C194A7B
:103BE0000021E061FC3A194801F02CFE154A2060E2
:103BF000D83A0021164801F025FE124A6060B43A16
:103C00000021144801F01EFE0E4AA060903A0021E7
:103C1000114801F017FE0B4AE0606C3A00210F4892
:103C200001F010FE074A2061483A00210C4801F0DB
:103C300009FE044A6061243A00210A4801F002FEAC
:103C4000A06110BDAC7F000800000020ED3F00081F
:103C50000F4000081D400008FD3F000821400008FB
:103C6000F93F0008254000082DE9F04385B0002405
:103C700030480094019402940394816941F010014A
:103C80008161816901F010010491816941F0200195
:103C90008161816901F020010491816941F0040191
:103CA0008161816901F004010491816941F0080199
:103CB00081618069204F00F0080004900022F0210B
:103CC0003846FEF702F9DFF87480002230214046C2
:103CD000FEF7FBF8DFF86890002207214846FEF760
:103CE000F4F84120CDE90004694640460294FDF70E
:103CF000EBFFF02001250226CDE90005CDE90246C3
:103D000069463846FDF7E0FF3020CDE90005CDE9F2
:103D1000024669464046FDF7D7FF0720CDE900057A
:103D2000CDE9024669464846FDF7CEFF05B0BDE83D
:103D3000F083000000100240000801400010014024
:103D4000000C01400D4810B50B4901600C49416061
:103D500000214FF480428160C0E90312416181611A
:103D6000C1610162FEF7BCF8002803D0BDE8104035
:103D7000FDF7EABA10BD0000005400402001002009
:103D8000A08601000C4810B50A4901604FF4E131EA
:103D90004160002181600C22C160C0E90412816190
:103DA000C161FFF723FA002803D0BDE81040FDF7FA
:103DB000CBBA10BD004C0040740100200C4810B577
:103DC0000A4901604FF4E1314160002181600C2219
:103DD000C160C0E904128161C161FFF707FA0028E0
:103DE00003D0BDE81040FDF7AFBA10BD0050004051
:103DF000BC0100200C4810B50A4901604FF4E131C4
:103E00004160002181600C22C160C0E9041281611F
:103E1000C161FFF7EBF9002803D0BDE81040FDF7C2
:103E200093BA10BD00380140040200200C4810B5C0
:103E30000A4901604FF4E1314160002181600C22A8
:103E4000C160C0E904128161C161FFF7CFF90028A8
:103E500003D0BDE81040FDF777BA10BD0044004024
:103E60004C0200200C4810B50A4901604FF4E131C2
:103E70004160002181600C22C160C0E904128161AF
:103E8000C161FFF7B3F9002803D0BDE81040FDF78A
:103E90005BBA10BD0048004094020020FEE7FEE738
:103EA00001B5002001E000BF401C00998842FAD310
:103EB00008BD000002494A690260098B8180704791
:103EC000C000002010B500221146012001F042FC84
:103ED0000549086100200870BDE810407F220349B1
:103EE0000348FEF7E2BF0000C00000200C350020B0
:103EF0004C020020084910B50246A1F2044000F02F
:103F000029F80648006901F071FCBDE810407F22E5
:103F100001490348FEF7C9BF0C350020C00000204E
:103F20004C02002030B5034600200AE01C5D0C5412
:103F3000B3F80244641CC4F30904401CA3F802440F
:103F400080B2904205D2B3F80244B3F80054AC42B8
:103F5000ECD130BD30B500230BE0B0F80054CC5CA0
:103F60004455B0F80044641CC4F30904A0F80044AC
:103F70005B1C9342F1DB30BD10B50346FF200FE020
:103F800013F8012B50400022040601D5312400E033
:103F90000024521C84EA4000D2B2C0B2082AF3D3F3
:103FA000491EC9B2ECD210BD70B50E4D044600F0EA
:103FB000010204212846FDF788FFC4F340020221D4
:103FC0002846FDF782FFC4F3800201212846FDF751
:103FD0007CFFC4F3C002BDE8704020210248FDF719
:103FE00074BF0000000C0140001001404FF47A74CF
:103FF000204601F0A7FAFBE700F012BA10B504461C
:10400000FCF7DCFE2046BDE8104000F0B3B810B568
:10401000FFF758FFBDE8104000F098B900F0B4B9C0
:1040200000F044BBFCF722FEFCF7E0FD642001F049
:1040300089FAF9E710B54FF0E020006903F0DEFCE3
:10404000012803D0BDE8104002F00EBE10BD30B50F
:1040500095B028216846FCF7FEF814210AA8FCF761
:10406000FAF818210FA8FCF7F6F801210804CDE9A9
:1040700000100025029502240491CDE907404FF479
:10408000E01009906846FEF773FC08B172B6FEE7CF
:104090000AA90F2081E831004FF48060CDE90D05B9
:1040A00002210AA8FEF768FB08B172B6FEE74FF4DA
:1040B000004011900F940FA8FEF7E8FA002801D0F5
:1040C00072B6FEE715B030BD704700000148FEF73C
:1040D00046BE0000A8030020F0B50268204C214D28
:1040E000214E224F224B4FF0804CA04209D09842E3
:1040F00007D0604505D0A84203D0B04201D0B842F5
:1041000004D122F0700E4A6842EA0E02A04209D0A1
:10411000984207D0604505D0A84203D0B04201D0F4
:10412000B84203D122F44075CA682A434D6922F08F
:1041300080022A4302608A68C2620A688262A042E0
:1041400001D0984201D109690163012141610169EE
:10415000C90703D0016921F001010161F0BD000030
:10416000002C01400004004000080040000C00400A
:1041700000340140A4B05E4E5E4CDFF87C91DFF865
:104180007C816D464FF0FF37642001F0DBF9306829
:1041900048B13B468022694603F0E2F90628F3D392
:1041A0000021421E0BE00A2001F0CCF9ECE76B5C29
:1041B0005A2B03D16B185B78A52B03D0491C914275
:1041C000E2D2F4E74A1CDFD005EB010A9AF802209C
:1041D00022929AF803B05944891D8142D4D80BF138
:1041E00002010AF10200FDF76FF821900AEB0B00C3
:1041F000818820910A4642A0219900F0CFFCDDE998
:1042000020018142C0D122980228BDD1BBF1040F08
:10421000BAD1DAF804A01FFA8AF08346014648A012
:1042200000F0BCFC3946D8F8000001F0E7F941F293
:104230007172ABEB0201934533D008DCABF59850BB
:1042400089380FD0012816D0022847D11FE0B1F5D8
:104250007A7F2CD0B1F5FA6F32D0A1F53061B83940
:104260003CD137E0CAF30740607308B1012200E097
:10427000002220212CE0CAF30740A07308B10122DC
:1042800000E00022802123E0FDF71FFE26E0CAF3B4
:104290000740E07308B1012200E000221021294804
:1042A000F2E74FEA1A602074FCF756FF16E0CAF3F3
:1042B0000740607408B1012200E00022402107E0BD
:1042C000CAF30740A07408B1012200E000221021C7
:1042D0004846D9E71C494FEA1A400870D8F8000050
:1042E00001F0E9F9D8F8000001F0E5F94CE7000029
:1042F000DC00002006380020000801401C000020DF
:104300005B44656275675D2053544D3332E7AE9769
:10431000E587BAE79A84435243203D20253034583C
:104320002C20E794B5E88491E58F91E69DA5E79A66
:1043300084435243203D20253034580A00000000B9
:1043400025640A0000100140E2000020A0B00C4FDC
:104350004FF0FF386D464146386901F0CDF907E06E
:10436000002403E0285D01F0B3FA641CB442F9DBD9
:104370007F2269460348FFF7D5FD0600EBD0EFE743
:10438000C00000200831002090B001F006F90A2199
:10439000B0FBF1F601F0FAF8DFF8788004466D46DC
:1043A0004FF05A094FF0A50A4FF0010B8DF800901D
:1043B0008DF801A08DF802B016208DF803004FF0A3
:1043C000FF314746D8F8000001F018F916221249CB
:1043D000281DFBF727FF386801F06DF91821A81C8C
:1043E000FCF772FF8DF81A00000A8DF81B001C27DD
:1043F00002E0012001F0A6F83A4669460748FFF7B7
:10440000EBF80028F5D1A01901F0A9F801F0BEF8E9
:104410000446CBE71C0000200638002004020020E0
:104420008AB04FF4FA7001F08DF8624C624D4FF093
:10443000FF364FF47A773146206801F0DFF8162214
:104440005E4904A8FBF7EEFE206801F034F99DF800
:10445000100008B15AA200E05BA25DA15DA002F0CD
:1044600069F89DF812205EA1684600F0A7FB6A4635
:1044700057A15CA002F05EF89DF8112058A1684693
:1044800000F09CFB6A4652A159A002F053F89DF837
:10449000230008B159A200E05AA24DA15BA002F08E
:1044A00049F89DF8240008B145A200E046A248A1C1
:1044B00059A002F03FF8BDF8152049A1684600F068
:1044C0007DFB6A4642A157A002F034F8BDF81720E0
:1044D00043A1684600F072FB6A463DA154A002F079
:1044E00029F8BDF91900FBF795FF2946FBF748FFAE
:1044F000FBF7CBFF02460B4650A1684600F05EFB7F
:104500006A4633A14FA002F015F8BDF81B00FBF777
:104510008AFF2946FBF734FFFBF7B7FF02460B463D
:1045200046A1684600F04AFB6A4629A148A002F06D
:1045300001F89DF81D0008B148A200E048A224A19E
:1045400048A001F0F7FF9DF81E0008B143A200E06B
:1045500043A21FA146A001F0EDFF9DF8210008B184
:104560003EA200E03EA21AA144A001F0E3FF9DF8A4
:10457000200008B139A200E039A215A142A001F043
:10458000D9FF9DF81F0008B134A200E034A210A1A9
:1045900040A001F0CFFF9DF8220008B12FA200E05B
:1045A0002FA20BA13EA001F0C5FF384600F0CAFFC4
:1045B00041E700001C0000200000C842063800202F
:1045C000E69C89E4BABA0000E697A0E4BABA000013
:1045D0007478740070616765312E743400000000D7
:1045E0002564000070616765312E7435000000009D
:1045F00070616765312E743600000000E7A6BBE6E7
:10460000898B0000E68FA1E6898B000070616765E9
:10461000322E74340000000070616765322E7433EE
:104620000000000070616765332E743400000000E4
:1046300070616765332E743500000000252E3166E9
:104640000000000070616765332E743600000000C2
:1046500070616765332E7437000000004F4E000014
:104660004F46460070616765342E743100000000CB
:1046700070616765342E74320000000070616765F8
:10468000342E74330000000070616765342E74347A
:104690000000000070616765342E74350000000072
:1046A00070616765342E74360000000086B04FF4E8
:1046B0007A7000F047FF4FF0FF350C4C4FF4FA765C
:1046C000FCF7ECFA2946206800F098FF162208490A
:1046D0006846FBF7A7FD206800F0EDFF6846FCF791
:1046E00085FD304600F02EFFEAE700001C000020A8
:1046F000063800200148FEF743BC0000740100208A
:104700000148FEF73DBC0000BC01002010B5406A26
:104710000021C185C184FEF731FC10BD70B5446A2B
:104720002068406994F84110C0F3C0100025212989
:1047300004D118B1E584204600F0B4F8206840693F
:1047400094F84210C0F38010222904D118B1E585F5
:10475000204600F080F8606C40F010006064204655
:10476000FEF70CFC70BD10B50146406A0968096887
:104770004FF0000289062ED4C28501680C3151E841
:10478000003F23F4807341E80034002CF5D1016828
:10479000143151E8003F23F0010341E80034002CBC
:1047A000F5D10168143151E8003F23F0400341E89E
:1047B0000034002CF5D1202180F84210016B012932
:1047C00009D101680C3151E8003F23F0100341E8A2
:1047D0000034002CF5D14263016B012902D0FEF7B1
:1047E00093FE10BD818DFEF785FB10BD10B5406AAC
:1047F00001214163016B012902D0FEF79BFE10BD30
:10480000818D4908FEF776FB10BD10B50146406A60
:1048100009680968890616D40021C1840168143129
:1048200051E8002F22F0800241E80023002BF5D14F
:1048300001680C3151E8002F42F0400241E80023AA
:10484000002BF5D110BDFEF703FF10BD10B5406A77
:10485000FEF7FFFE10BD01680C3151E8002F22F475
:10486000907241E80023002BF5D10168143151E822
:10487000002F22F0010241E80023002BF5D1016B4B
:10488000012909D101680C3151E8002F22F01002F2
:1048900041E80023002BF5D1202180F842100021AF
:1048A0000163704701680C3151E8002F22F0C0020B
:1048B00041E80023002BF5D1202180F841107047FA
:1048C00008B590F84210222901D0022008BD826864
:1048D0004FF480539A4201D1016921B1816A9A4211
:1048E0001BD04AB10AE00268816A5268C2F308022A
:1048F0000A80816A891C08E0026972B10268526804
:1049000002F07F020A70816A491C8162C18D491ED2
:104910000904090CC18503D01BE002685268F1E765
:104920000168CA6822F02002CA600168CA6822F4DD
:104930008072CA6001684A6922F001024A6120213E
:1049400080F8421000214163026B012A03D0FEF778
:10495000DBFD002008BD016301680C3151E8002F28
:1049600022F0100241E80023002BF5D101680A680B
:10497000D20602D50A6849680091818DFEF7BAFA1D
:10498000E7E7000070B5044600680169E26821F4B9
:104990004051114301612169A068084361690843DE
:1049A0002168CA6841F20C639A430243CA602068D6
:1049B0004169A26921F44071114341611E49206897
:1049C000884202D1FDF79EFF01E0FDF78BFF00EB6F
:1049D000C00101EB0012606864218000B2FBF0F3BB
:1049E000B3FBF1F36FF018067343B2FBF0F5B2FBC3
:1049F000F0F605EB8305322303EB0515B5FBF1F566
:104A0000B6FBF1F605F0F00505EB0615B2FBF0F686
:104A1000B2FBF0F0B0FBF1F06FF01802504306EB80
:104A2000800003EB0010B0FBF1F0216800F00F00F4
:104A30002844886070BD00000038014038B58162AC
:104A400004468285002013466064222284F84220B6
:104A5000E56B1B4AAA62E56B1A4AEA62E56B1A4AE1
:104A60002A63E26B50630A462168E06B091DFDF77B
:104A7000E1F82068016840680090206948B120682A
:104A80000C3050E8001F41F4807140E80012002A09
:104A9000F5D12068143050E8001F41F0010140E8D2
:104AA0000012002AF5D12068143050E8001F41F0B0
:104AB000400140E80012002AF5D1002038BD000076
:104AC00067470008ED4700081D470008816282859E
:104AD000C28500214164222180F84210016921B180
:104AE0000168CA6842F48072CA6001684A6942F08B
:104AF00001024A610068C16841F02001C1600020E4
:104B000070472DE9F843984617460D460446089E1F
:104B100024E0701C22D0FDF7DDF9A0EB0800B042C4
:104B20001AD8CEB12068C168490717D5802D15D095
:104B3000402D13D00168C94309070FD4016800252F
:104B4000406800902046FFF786FE0820606484F8E5
:104B500040500120BDE8F8830320FBE7206800688F
:104B600035EA000004D00020B842D2D00020F1E79E
:104B70000120F9E70148FEF703BA00000402002013
:104B80000148FEF7FDB900004C0200200148FEF785
:104B9000F7B9000094020020FEE700000FB4054BB7
:104BA00010B503A9044A029800F004F910BC5DF89E
:104BB00014FB0000C5540008E80000200FB4084BA7
:104BC00010B504A902AA039800F0F4F8044602A95B
:104BD000002000F072FC204610BC5DF814FB0000C1
:104BE000BB5400080907090E002804DB00F1E0208F
:104BF00080F80014704700F00F0000F1E02080F80A
:104C0000141D704702E008C8121F08C1002AFAD11B
:104C100070477047002001E001C1121F002AFBD13C
:104C2000704700000149086070470000EC00002058
:104C30002DE9FF5F82B00021DDE90430020DDDF8CF
:104C400040B0034318D044F61050A2F2FF32424362
:104C50001514119801281FD0A5EB0B00401C5FEA2A
:104C6000000A4FF000064E4FDFF83891B04650462C
:104C700015D5CAF1000413E0119801244AA30128B4
:104C800001D16FEA0B010298119AC0E90031C0E925
:104C9000024206B0BDE8F09FCBF10000DFE704461A
:104CA0000021404A491842EB0450CDE9001012E0BF
:104CB000E00707D032463B4640464946FBF74CFDED
:104CC0008046894632463B4610461946FBF744FD6E
:104CD00006460F466410002CEAD1DDE90401DDE947
:104CE0000023BAF1000F06DAFBF736FD42464B46C9
:104CF000FBF732FD05E0FBF7A1FD42464B46FBF713
:104D00009DFD04460E460022284BFBF71FFE03D8EC
:104D10004FF0FF30014607E00022254B2046314688
:104D2000FBF773FCFBF7F9FD102409E0002C0ADB0C
:104D30000A220023FBF7D2FB039B30321A55641E74
:104D400050EA0102F2D1641C039AC4F11103144425
:104D5000119A012A03D0012208430DD10AE0084329
:104D600004D000204FF0110B119072E7A3EB0B055C
:104D70006D1E0DE05B4504DD4FF0000205F10105FD
:104D800004E003DA4FF00002A5F10105002AECD09F
:104D900002981199C0E90231C0E9004579E70000A5
:104DA000000014400000F03F300000000000F0431D
:104DB0000000E03F2DE9FF4F95B09A468846064631
:104DC0000025EEE1252877D100242746F94A012164
:104DD000039400E0044316F8013F203B01FA03F07E
:104DE0001042F7D130782A2811D06FF02F03307895
:104DF000A0F13002092A16D8039A44F0020402EB0B
:104E0000820203EB42021044761C0390EFE758F84D
:104E1000042B0392002A03DA504244F40054039016
:104E200044F00204761C30782E2816D116F8010FB3
:104E300044F004042A280DD06FF02F023078A0F13E
:104E40003003092B09D807EB870302EB4303C7188C
:104E5000761CF3E758F8047B761C30786C280FD06A
:104E600006DC4C2817D068280DD06A2814D104E03D
:104E7000742810D07A280FD10DE044F400140AE011
:104E800044F4801401E044F440147278824202D168
:104E900004F58014761C761C307866280BD013DC61
:104EA000582877D009DC002875D04528F6D0462848
:104EB000F4D047281AD193E118E0632835D064284C
:104EC00079D0652812D18BE1702873D008DC67286F
:104ED000F1D069286FD06E280DD06F2806D1ACE0D4
:104EE00073282CD0752874D0782853D0524617993F
:104EF00090476D1C54E1C4F30250022809D00328E6
:104F00000DD0D8F8001004280DD00D6008F1040869
:104F100046E1D8F80010EA17C1E90052F6E7D8F8E0
:104F200000100D80F2E70D70F0E718F8041B8DF803
:104F3000001000208DF80100EB46012003E058F836
:104F400004BB4FF0FF3061074FF0000102D40DE0C9
:104F500009F101018946B9420FDA8145F8DB1BF8F6
:104F600009100029F4D108E009F1010189468142C4
:104F7000FADB1BF809100029F6D103985346A0EB81
:104F8000090721463846179A00F080FA284400EBBA
:104F9000090507E044E008E10DE01BF8010B52466B
:104FA00017999047B9F10109F7D25346214638467F
:104FB000179AF2E039E00A21C4F302524FF0000BD5
:104FC0000091022A06D058F8040BC117032A09D011
:104FD0000AE023E008F1070020F00702F2E80201EE
:104FE000904605E000B2C117042A01D140B2C117B2
:104FF000002906DA0A460021404261EB02012D2217
:1050000002E0220504D52B228DF80420012203E0C2
:10501000E20701D02022F7E7914657E00A2100E09D
:1050200010214FF0000B00910BE010214FF0000B0E
:1050300044F004040827009103E008204FF0000B1F
:105040000090C4F30252022A05D058F8040B002144
:10505000032A08D008E008F1070020F00702F2E870
:105060000201904603E080B2042A00D1C0B24FF0A2
:10507000000922072AD53278702A07D0DDF800C04F
:105080008CF0100C5CEA0B0C05D00EE040228DF881
:105090000420012208E050EA010306D030238DF8F5
:1050A00004308DF8052002229146009B83F008030E
:1050B00053EA0B030AD150EA010201D1620705D578
:1050C00030228DF804204FF001097F1E3278582AD3
:1050D00004D039A20C920CAA02920BE03BA2F9E791
:1050E0005B46009AFBF7FAF90C9B9B5C029A521EF6
:1050F0000292137050EA0102F2D1029804A9081A30
:1051000000F1200B600702D524F4803400E0012771
:105110005F4502DDA7EB0B0000E0002000EB0B0178
:10512000009003984944401A0390E00306D4534684
:105130002146179A039800F0A9F90544002706E0D4
:1051400001A85246C05D179990476D1C7F1C4F45C2
:10515000F6DBE0030CD553462146179A039800F07E
:1051600095F9054404E030205246179990476D1C8C
:105170000099481E00900029F5DC08E00298029989
:1051800052460078491C0291179990476D1CBBF15B
:105190000001ABF1010BF1DC5BE100F065F90544C6
:1051A000761C307800287FF40DAE19B02846BDE893
:1051B000F08F0000092801003031323334353637A2
:1051C0003839616263646566000000003031323353
:1051D00034353637383941424344454600000000F3
:1051E000600700D4062708F1070020F00700F0E868
:1051F0000223804603F0004C5FEA0C0001D097A028
:1052000009E0200501D596A005E0E00701D095A0B2
:1052100001E0AFF24C001390307823F00043652892
:105220000CD006DC452809D046281DD047287FD160
:105230003BE0662818D067287AD136E00021112F8C
:1052400001DB112000E0781CCDE9000104A90CA8C5
:10525000FFF7EEFCDDE90D010C9A4FF0000B07F1B2
:105260000109109200914EE04FF000400097CDE907
:10527000011004A90CA8FFF7DBFCDDE90D020C9B73
:105280000F994FF0000B91461093009211B9791CC1
:1052900000EB0109B7EB090003D4C0F1FF3B07F1B4
:1052A0000109A9EB0700019042E0012F00DA012774
:1052B0000021112F01DD112000E03846CDE9000169
:1052C00004A90CA8FFF7B4FCDDE90D010C9A0091CC
:1052D0004FF0000BB946109221070FD4009A4A45AF
:1052E00003DA914601E0A9F10109B9F1010F05DDE9
:1052F000109AA9F10101515C3029F4D0B84202DAC8
:1053000010F1040F03DA0121CDE9011010E00028AB
:1053100003DC8344A9EB000102E0411C494500DDA8
:105320008946A0EB0B00401C01904FF0004002901A
:10533000200705D40198484502DB4FF0FF3001906B
:1053400000208DF84B0002980DF14B07B0F1004F93
:1053500025D002200C902B200D90029800280CDA0A
:10536000404202902D200D9007E00A210298FBF7A1
:105370009FF83031029007F8011D0C99481E0C90DF
:105380000029F2DC02980028EFD1791E0D980870F0
:10539000307800F0200040F0450007F8020D11A819
:1053A000C01BC01D02901398007800B1012000EBD3
:1053B0000901019801EBE071029801440398401A39
:1053C000401E0390E00306D453462146179A0398E3
:1053D00000F05CF805441398007818B1524617990C
:1053E00090476D1CE00323D553462146179A039836
:1053F00000F04CF805441BE0BBF1000F07DB009800
:10540000584504DD1098179910F80B0001E0179922
:1054100030205246904701980BF1010B401E05F1D8
:105420000105019004D12E205246179990476D1C1A
:10543000B9F10001A9F10109DEDC05E017F8010B63
:105440005246179990476D1C0299481E02900029F8
:10545000F4DC53462146179A03989EE62D0000007F
:105460002B000000200000002DE9F041044600253B
:105470001E461746880404D405E039462020B0476C
:105480006D1C641EF9D52846BDE8F0812DE9F04178
:10549000044600251E469046C80301D5302700E08B
:1054A0002027880404D505E041463846B0476D1CE6
:1054B000641EF9D52846BDE8F0810A68531C0B60CC
:1054C0001070704713B54FF0FF3301226946024850
:1054D000FEF731F800981CBD040200201448FEF7C6
:1054E000DFFCFCF7B5FFFEF7B2FDFEF7BDFBFEF7F4
:1054F0004BFBFEF721FBFEF725FCFEF75FFCFEF7FA
:1055000079FCFEF73FFCFEF791FCFEF7ABFCFBF7E6
:1055100011FE08A0FFF742FBFBF776FCFBF75CFDF2
:1055200000F03EF8FEF756FB00F04CF8FEE70000F6
:1055300040420F0053797374656D20696E69740A77
:105540000000000010B5EFF3058111B16FF0050404
:1055500003E0002408B101F0A7F9204610BD38B5DA
:105560000546EFF3058010B16FF005040CE0002450
:1055700002F052FA291A0090002903DD684601F072
:10558000B9F901E06FF00304204638BDEFF3058060
:1055900008B102F047BA02F03FBA4FF47A70704790
:1055A000EFF3058010B16FF0050070470448016803
:1055B00011B14FF0FF3070470121016000207047AA
:1055C0008000002010B5EFF3058010B16FF00500EA
:1055D00010BD08480168012902D04FF0FF3010BD0E
:1055E000054A002182F8141D0221016001F052FADF
:1055F000002010BD800000200BE000E02DE9F0410C
:105600000D46014621F0010001F001014FF00004B8
:10561000EFF305820AB1A41F16E048B100296FF02C
:1056200001066FF00207294608D001F043FF07E0AA
:105630006FF0030408E035B1344605E001F07EFE6A
:105640000128F8D100E03C462046BDE8F08170B565
:1056500005464FF00004EFF3058050BB0DB16868BC
:1056600000E00020C10701D0012600E0002600076D
:105670001FD46DB1D5E9021021B1502819D31EB144
:10568000042002E020B114E0012001F04BFB05E012
:105690000EB1042000E0012001F039FB040008D025
:1056A0000DB1296800E0002101F09CF80EB144F032
:1056B0000104204670BD70B5014621F0010001F0E3
:1056C00001014FF00004EFF305820AB1A41F11E0BD
:1056D00028B16FF0020529B101F027FD07E06FF056
:1056E000030407E000231A46194601F0C1FB012814
:1056F00000D02C46204670BDF8B50D460024211F71
:105700004E1C002804D000BFEFF30582A2B10DB1FA
:105710000C461BE000216A46009101F0C1FD012802
:1057200013D1009890B10A494FF080500860BFF340
:105730004F8FBFF36F8F09E0294601F0FFFD01286D
:1057400004D015B16FF0010400E034462046F8BDE6
:1057500004ED00E0F8B5144603460E464FF0000590
:10576000EFF3058098BB93B39E423DD84CB1A0683F
:105770000028E06803D0502836D3012002E008B1A9
:1057800032E00020012B05D010B31846A26801F0CA
:105790009EFA20E040B10320009000221146012033
:1057A000A36801F0EDFA04E003220021012001F0DA
:1057B000C6FA050018D086B100231A46194601F032
:1057C00057FB012809D0284601F020F800250BE0FE
:1057D000184601F05FFA050006D00CB1216800E020
:1057E0000021284600F0FEFF2846F8BD38B5002409
:1057F000E51E00280BD000BFEFF30581A9B1002101
:105800000091694601F043FC012815D102E06FF0D8
:10581000030412E0009880B109494FF080500860FD
:10582000BFF34F8FBFF36F8F07E000231A4619466F
:1058300001F01EFB012800D02C46204638BD000098
:1058400004ED00E02DE9FF414FEA01034FF00005B0
:10585000EFF30581039549BB40B38027182100244D
:105860004AB3166806B1344696691EB13146761EB3
:10587000382E02D21679F60703D0002004B0BDE816
:10588000F081566906B1B708D2F808C0BCF1000F24
:105890000DD0D5685C2D18D312693AB136B18DE8B8
:1058A00006103A46214601F086FF03900DE0D668C7
:1058B0005EB912694AB903AACDE90012BAB221460B
:1058C00001F04CFF012800D003950398D6E70000B3
:1058D0002DE9F047304C0025224694F800C0967818
:1058E000538992F804900702128986EA0001BCF1FC
:1058F0000A0F4FD2DFE80CF0050B0F15191E2228F6
:105900003744012801D12070A070BDE8F087E780FE
:10591000A170022016E0E2880243E280A170032019
:1059200010E02781A17004200CE002432281A170C5
:10593000052007E06781A170062003E0034363812F
:10594000A17007202070E0E7F143C9B26070814286
:1059500020D12AB1802A1DD8A58125710820F1E720
:105960000022114613E00D4BA1895854491C89B2FD
:10597000A18189EA000323719142C6D30920E1E79E
:105980006FEA0901C9B2E070814203D103491846A8
:1059900000F006F82570B8E7C00000208C35002024
:1059A0002DE9F0412F4CA0F57063093B35D0A0F5EF
:1059B0002063143B34D0A0F52063153B37D0A0F50D
:1059C0002063043B3BD0A0F52063163B40D0A0F5FC
:1059D0002063173B1FD1082A1DD300200E684D6895
:1059E0000C2A00D388680146FAF798FC0746294636
:1059F0000846FAF793FC054631460846FAF78EFC4E
:105A00002946FAF733FC3946FAF730FC00F07CFD02
:105A1000FAF727FDA080BDE8F08108782070FAE74A
:105A2000042A00D30868FAF71CFD6070F3E7002031
:105A3000042A00D30868FAF714FDA070EBE7102AD7
:105A4000E9D308680028E6D04E688D68C868CAE7C0
:105A5000082AE0D30A684868012ADCD10249FAF72B
:105A60008FFCD5E7D40000200000C8422DE9F041AA
:105A7000134C0F460546E6682068001D00F0B4FD93
:105A8000681C07D137B12168BDE8F0410D48091DF8
:105A900000F0FABD20683544B5424560216805D262
:105AA000A06BBDE8F041091D00F0D6BD606B091D7B
:105AB00000F0D2FDA06A854200D2A562BDE8F08167
:105AC00030000020E00800202DE9F041054600F0FC
:105AD000E7FD2D4CA068401CA06020682B4F10B142
